:100000000C9462000C948A000C948A000C948A0070
:100010000C948A000C948A000C948A000C94F601CB
:100020000C948A000C948A000C948A000C948A0028
:100030000C948A000C948A000C948A000C948A0018
:100040000C947D040C948A000C94C4010C949E01C1
:100050000C948A000C948A000C948A000C948A00F8
:100060000C948A000C948A000000000023002600F3
:10007000290000000000240027002A0000000000E2
:10008000250028002B0004040404040404040202D4
:100090000202020203030303030301020408102007
:1000A0004080010204081020010204081020000012
:1000B0000008000201000003040700000000000027
:1000C00000002B0B11241FBECFEFD8E0DEBFCDBF49
:1000D00011E0A0E0B1E0E8E0FCE102C005900D9283
:1000E000A631B107D9F722E0A6E1B1E001C01D9227
:1000F000A939B207E1F710E0C2E6D0E004C02197C9
:10010000FE010E94E80DC136D107C9F70E94C7045D
:100110000C94020E0C940000FC01538D448D252F8D
:1001200030E0842F90E0821B930B541710F0CF9691
:10013000089501970895FC01918D828D981761F0C3
:10014000828DDF01A80FB11D5D968C91928D9F5F0E
:100150009F73928F90E008958FEF9FEF0895FC01B9
:10016000918D828D981731F0828DE80FF11D858D6C
:1001700090E008958FEF9FEF0895FC01918D228DFF
:10018000892F90E0805C9F4F821B91098F73992784
:10019000089584E291E00E94BD0021E0892B09F4DA
:1001A00020E0822F0895FC01848DDF01A80FB11D8E
:1001B000A35ABF4F2C91848D90E001968F7399279D
:1001C000848FA689B7892C93A089B1898C9183707B
:1001D00080648C93938D848D981306C00288F38974
:1001E000E02D80818F7D80830895EF92FF920F93A1
:1001F0001F93CF93DF93EC0181E0888F9B8D8C8DD3
:10020000981305C0E889F989808185FD26C0F62EFE
:100210000B8D10E00F5F1F4F0F731127E02E8C8D99
:10022000E8120CC00FB607FCFACFE889F989808183
:1002300085FFF5CFCE010E94D300F1CF8B8DFE015B
:10024000E80FF11DE35AFF4FF0829FB7F8940B8F30
:10025000EA89FB89808180620AC09FB7F894EE89A1
:10026000FF896083E889F989808183708064808355
:100270009FBF81E090E0DF91CF911F910F91FF90A0
:10028000EF900895CF93DF93EC01888D8823C9F018
:10029000EA89FB89808185FD05C0A889B9898C918F
:1002A00086FD0FC00FB607FCF5CF808185FFF2CF2A
:1002B000A889B9898C9185FFEDCFCE010E94D3002A
:1002C000E7CFDF91CF91089580E090E0892B29F06E
:1002D0000E94C90081110C9400000895CF92DF9212
:1002E000EF92FF920F931F93CF93DF936C017A01EC
:1002F0008B01C0E0D0E0CE15DF0581F0D8016D9113
:100300008D01D601ED91FC910190F081E02DC601A7
:100310000995892B11F02196EECF7E01C701DF915F
:10032000CF911F910F91FF90EF90DF90CF900895A4
:10033000089580E090E008950E94FD0D1F920F92B5
:100340000FB60F9211242F933F934F935F936F93A8
:100350007F938F939F93AF93BF93EF93FF9384E229
:1003600091E00E94D300FF91EF91BF91AF919F91D7
:100370008F917F916F915F914F913F912F910F904E
:100380000FBE0F901F9018951F920F920FB60F92ED
:1003900011242F938F939F93EF93FF93E091340158
:1003A000F09135018081E0913A01F0913B0182FDAD
:1003B00012C0908180913D018F5F8F7320913E012B
:1003C000821751F0E0913D01F0E0EC5DFE4F958F1A
:1003D00080933D0101C08081FF91EF919F918F91AA
:1003E0002F910F900FBE0F901F9018951F920F9294
:1003F0000FB60F9211242F933F934F935F936F93F8
:100400007F938F939F93AF93BF93CF93DF93EF939C
:10041000FF932091C10130E0F901E255FF4F849133
:10042000F901E656FF4FD491F901EA57FF4FC49105
:10043000CC2379F081110E94AF03EC2FF0E0EE0F96
:10044000FF1FE859FF4FA591B491EC91ED2381E096
:1004500009F480E02091C4013091C5012F5F3F4F26
:100460003093C5012093C40190918E02943618F008
:1004700095E09093C2019091C2019330B9F018F4C5
:10048000923039F057C0943059F1953009F44CC08E
:1004900051C081114FC02091C4013091C501243653
:1004A000310508F443C010928E021CC0813009F05F
:1004B00041C0E0918E0291E09E0F90938E02F0E099
:1004C0002091C4013091C501EE0FFF1FEF53FE4F85
:1004D000368325831092C5011092C40194E021C097
:1004E000811117C0E0918E0291E09E0F90938E02D1
:1004F000F0E02091C4013091C501EE0FFF1FEF53D2
:10050000FE4F368325831092C5011092C40193E0FB
:1005100008C02091C4013091C5012536310550F045
:1005200095E09093C20106C0811104C01092C501EC
:100530001092C4019091C301992329F0811102C046
:100540002D9A01C02D98FF91EF91DF91CF91BF912E
:10055000AF919F918F917F916F915F914F913F915B
:100560002F910F900FBE0F901F901895CF92DF9292
:10057000EF92FF92CF93DF93EC01072E000C880BD4
:10058000990B0E94790C6B017C0120E030E040E483
:100590005FE30E94290D20E030E048E452E40E942D
:1005A000CF0B0E94410CC617D707D4F020E030E0F3
:1005B00040EA5FE3C701B6010E94290D20E030E068
:1005C00048E452E40E94CF0B20E030E040E85FE3D3
:1005D0000E945E0B0E94410C21E06C177D070CF419
:1005E00020E0822F90E0DF91CF91FF90EF90DF909D
:1005F000CF90089561E08DE00E94D80361E08CE027
:100600000E94D80361E08AE00E94D80361E08BE099
:100610000E94D80360E085E00E94D80360E086E095
:100620000C94D8033FB7F89480919502909196026C
:10063000A0919702B091980226B5A89B05C02F3FC4
:1006400019F00196A11DB11D3FBFBA2FA92F982FF8
:100650008827820F911DA11DB11DBC01CD0142E073
:10066000660F771F881F991F4A95D1F708958F92BB
:100670009F92AF92BF92CF92DF92EF92FF920F9331
:100680001F93CF93DF93FC0120813181E091220100
:10069000F09123012E173F070CF04FC0F901EE0F28
:1006A000FF1FA0912001B0912101EA0FFB1FA08044
:1006B000B180217033276901F1E0CF26232B19F493
:1006C0002CE93FEF02C024E630E07A018B01EC0117
:1006D0004901840E951EB401C5010E94B602892B02
:1006E00099F48E0C9F1CB401C5010E94B602892B9F
:1006F00071F4B701680D791DC5010E94B602892BFE
:10070000F9F023E030E005C021E030E002C022E053
:1007100030E0F801808191810196821793071CF4E3
:100720009183808308C0F8011182108288819981A9
:10073000019699838883C60105C081E090E002C0DC
:100740008FEF9FEFDF91CF911F910F91FF90EF906F
:10075000DF90CF90BF90AF909F908F90089583309F
:1007600081F028F4813099F08230A1F0089587302B
:10077000A9F08830B9F08430D1F4809180008F7D69
:1007800003C0809180008F7780938000089584B5A6
:100790008F7702C084B58F7D84BD08958091B000AD
:1007A0008F7703C08091B0008F7D8093B000089553
:1007B0001F93CF93DF93282F30E0F901E255FF4FCD
:1007C0008491F901E656FF4FD491F901EA57FF4FA2
:1007D000C491CC23C1F0162F81110E94AF03EC2FDE
:1007E000F0E0EE0FFF1FE458FF4FA591B4919FB7C3
:1007F000F894111104C08C91D095D82302C0EC91CB
:10080000DE2BDC939FBFDF91CF911F910895CF9393
:10081000DF9390E0FC01E656FF4F2491FC01EA577C
:10082000FF4F8491882361F190E0880F991FFC01AC
:10083000EE58FF4FC591D491FC01E458FF4FA591AC
:10084000B491611109C09FB7F894888120958223E3
:100850008883EC912E230BC0623061F49FB7F8942B
:100860008881322F309583238883EC912E2B2C9313
:100870009FBF06C08FB7F894E8812E2B28838FBFC7
:10088000DF91CF9108958F929F92AF92BF92CF92B6
:10089000DF92EF92FF926B017C010E9412034B01E9
:1008A0005C01C114D104E104F104F1F00E941203CF
:1008B000DC01CB0188199909AA09BB09883E93403C
:1008C000A105B10570F321E0C21AD108E108F108D1
:1008D00088EE880E83E0981EA11CB11CC114D104BF
:1008E000E104F10419F7DDCFFF90EF90DF90CF9096
:1008F000BF90AF909F908F9008951F920F920FB668
:100900000F9211242F933F938F939F93AF93BF9395
:100910008091910290919202A0919302B0919402E1
:100920003091900223E0230F2D3720F40196A11D72
:10093000B11D05C026E8230F0296A11DB11D20930D
:1009400090028093910290939202A0939302B093AD
:1009500094028091950290919602A0919702B09195
:1009600098020196A11DB11D809395029093960265
:10097000A0939702B0939802BF91AF919F918F91EE
:100980003F912F910F900FBE0F901F901895CF930E
:10099000DF93CDB7DEB7AB970FB6F894DEBF0FBECF
:1009A000CDBF789484B5826084BD84B5816084BDF8
:1009B00085B5826085BD85B5816085BD80916E00FD
:1009C000816080936E00109281008091810082602E
:1009D000809381008091810081608093810080916B
:1009E00080008160809380008091B100846080935A
:1009F000B1008091B00081608093B00080917A0056
:100A0000846080937A0080917A00826080937A007B
:100A100080917A00816080937A0080917A0080686A
:100A200080937A001092C100E0913401F091350179
:100A300012E01083E0913001F09131011082E091D9
:100A40003201F09133018FEC808310923C01E091F0
:100A50003801F091390186E08083E0913601F09110
:100A60003701808180618083E0913601F091370108
:100A7000808188608083E0913601F0913701808128
:100A800080688083E0913601F091370180818F7D0D
:100A9000808362E08EE00E94070461E08BE00E94A8
:100AA000070461E08AE00E94070461E08DE00E9493
:100AB000070461E08CE00E94070461E085E00E9489
:100AC000070461E086E00E94070461E08DE00E9477
:100AD000D80361E08CE00E94D80361E08AE00E94C4
:100AE000D80361E08BE00E94D80360E085E00E94BB
:100AF000D80360E086E00E94D803F8941093B00019
:100B00001093B10084E68093B3001092B20010936A
:100B1000700078941093C20110928E028091C101EE
:100B200060E00E94070422242394312C44244A9438
:100B3000542C320180E480937C0080917A008064A0
:100B400080937A0080917A0086FDFCCF80917800B6
:100B50002091790090E0922BC29744F40E94FA020F
:100B60006CE271E080E090E00E94430461E085E087
:100B70000E94D80361E086E00E94D80326EC31E0B1
:100B8000309321012093200180918E0290E0909378
:100B90002301809322018091C201853009F06FC149
:100BA0008091C8019091C901885891098D359105AE
:100BB00088F480918E02843041F48091CA01909132
:100BC000CB018097479708F476C180918E028434D8
:100BD00008F058C180918E028A3108F4CCC180910E
:100BE000C6019091C701843F914068F410921F01A3
:100BF00010921E0140921A0150921B0160921C013A
:100C000070921D0143C08091C8019091C9018597E0
:100C10004B9708F0B0C1ECECF1E082E090E0C12C21
:100C2000D12C760120918E0230E0AC014F5F5F4FF6
:100C30004217530754F4DF0112972D913C9127502E
:100C400031092730310508F47AC1019795958795C8
:100C500090931F0180931E010C972CF410921F019A
:100C600010921E0188C1C0921A01D0921B01E0921D
:100C70001C01F0921D0182E090E015C0C0921A01A3
:100C8000D0921B01E0921C01F0921D0189E090E0DE
:100C90000AC0C0921A01D0921B01E0921C01F0928E
:100CA0001D018AE090E09093170180931601009156
:100CB0001A0110911B0120911C0130911D0119A2F4
:100CC000BE016F5D7F4FD901C8018F709927AA2798
:100CD000BB27A4E03695279517950795AA95D1F7D8
:100CE000615071098A3014F4805D01C0895CFB0198
:100CF0008083011511052105310529F7611571055D
:100D000059F001900020E9F73197AF01461B570BCE
:100D100084E291E00E946E0142E050E062E171E005
:100D200084E291E00E946E0180911A0190911B0172
:100D3000A0911C01B0911D018736F7E99F07FCE7E0
:100D4000AF07F6E6BF0709F458C0F0F4873033E484
:100D5000930739EDA3073BE0B30709F467C030F40C
:100D60008F349449AF44B140C9F17EC087332BE141
:100D7000920727E0A20722E4B207B9F18F339E4C15
:100D8000A142B34559F170C08F33E3E59E07EAE015
:100D9000AE07E6EEBE0709F446C060F48F399B4308
:100DA000AB41B04A09F060C061E08CE00E94D8031A
:100DB00060E021C0873431EE930734E3A30730EFBE
:100DC000B30799F08F3F9F48AE4BBA4F09F04CC024
:100DD00060E08CE00E94D80361E00DC061E08BE030
:100DE0000E94D80360E08AE03DC060E08BE00E9492
:100DF000D80361E0F8CF8DE035C060E085E00E9467
:100E0000D80360E086E00E94D80364EF71E080E0E0
:100E100090E00E94430461E085E00E94D80361E015
:100E200086E00E94D8030E94FA021EC060E08BE0B8
:100E30000E94D80360E085E00E94D80368EE73E06A
:100E400080E090E00E94430460E086E00E94D803C6
:100E500061E08AE00E94D80361E08DE00E94D8033F
:100E600060E08CE00E94D80382E08093C20110927F
:100E70008E0268EC70E080E090E00E9443040E94E3
:100E8000640158CE8091CA019091CB01825491099E
:100E90008E9708F09FCE80E090E040E050E0BA01ED
:100EA000FC01E453FE4F2081318129503109293062
:100EB0003105B0F08FCE8091CC019091CD01099792
:100EC000099708F082CE10921F0110921E014092E5
:100ED0001A0150921B0160921C0170921D01B3C354
:100EE000FC01E253FE4F208131812651310921312D
:100EF0003105C0F4440F551F661F771F41600496EB
:100F00008038910569F680E290E090931F0180930C
:100F10001E0140931A0150931B0160931C017093B2
:100F20001D0191C3208131812650310927303105BF
:100F300008F050CE440F551F661F771FE0CF208169
:100F40003181235131092F30310548F4CC0CDD1C9F
:100F5000EE1CFF1C6894C0F80296349663CE208184
:100F600031812A5031092930310528F4CC0CDD1C9F
:100F7000EE1CFF1CF1CF80918E028A3108F45CC018
:100F80008091C6019091C7018032934008F42ECE23
:100F90008091C8019091C901C697869708F04CC00E
:100FA0008091CA019091CB01C697869708F044C002
:100FB000EEECF1E083E090E0C12CD12C76012091A1
:100FC0008E0230E0AC014F5F5F4F421753074CF485
:100FD000DF0112972D913C912C5031092B303105B6
:100FE00078F001979595879590931F0180931E0146
:100FF0000C970CF043CE10921F0110921E011CC0E2
:1010000020813181255231092B31310548F4CC0C36
:10101000DD1CEE1CFF1C6894C0F802963496CFCFFE
:10102000208131812C5031092A30310528F4CC0C33
:10103000DD1CEE1CFF1CF1CF80918E02823208F481
:101040004EC08091C8019091C9010697079708F09A
:1010500046C0ECECF1E082E090E0C12CD12C7601AE
:101060009C012F5F3F4F40918E0250E024173507BF
:10107000CCF4DF0112974D915C9111974E515109BB
:1010800047315105F0F4CC0CDD1CEE1CFF1C6894BC
:10109000C0F8408151813496435051094530510583
:1010A000E0F0C90101979595879590931F01809372
:1010B0001E0140970CF0EDCD10921F0110921E0101
:1010C0000EC04D915C914C5051094B30510538F494
:1010D000CC0CDD1CEE1CFF1CDCCF0296C1CF809136
:1010E0008E028D3048F480912201909123011816D0
:1010F00019060CF481C08BC03BA22AA21A82198265
:1011000049E753E0BE016F5F7F4FCE0182960E9498
:101110003703892B21F080E090E0DC0167C049E7CC
:1011200053E0BE016F5F7F4FCE0182960E9437036E
:10113000019789F749E753E0BE016F5F7F4FCE010A
:1011400082960E943703892B31F700E010E0812C52
:10115000912C540180918E0290E02AA13BA1281786
:10116000390774F549E753E0BE016F5F7F4FCE0149
:1011700082960E9437037C0149E753E0BE016F5F0E
:101180007F4FCE0182960E94370321E0E216F104E0
:1011900051F4892B09F0BFCF880C991CAA1CBB1CE9
:1011A000689480F80AC0EF2809F0B5CF019709F0DC
:1011B000B2CF880C991CAA1CBB1C0F5F1F4FCACF53
:1011C00010931F0100931E0180921A0190921B013F
:1011D000A0921C01B0921D0183E090E09093170152
:1011E0008093160181E090E0A0E0B0E0892B8A2B8B
:1011F0008B2B09F05CCD77CF3BA22AA2E091200196
:10120000F09121018281938189974E9720F080E0AF
:1012100090E0DC014AC082E090E09BA38AA3848135
:1012200095810B970A9798F723E030E03BA32AA318
:101230001A8219824CEB51E0BE016F5F7F4FCE01E5
:1012400082960E943703892B11F74CEB51E0BE01C7
:101250006F5F7F4FCE0182960E9437030197B9F6E8
:1012600000E010E0812C912C54012091220130915A
:1012700023018AA19BA1821793070CF4F7C0109356
:101280001F0100931E0180921A0190921B01A092EF
:101290001C01B0921D0184E090E0909317018093AF
:1012A000160181E090E0A0E0B0E0892B8A2B8B2B27
:1012B00009F0FDCCC0902001D0902101F60182817F
:1012C0009381C6978697E8F4F601848195814B97C0
:1012D0004597B8F4D60116967601F6ECEF0EF11CA0
:1012E00020E030E040E050E060E070E080E090E03E
:1012F0000D911C911197095011090830110508F43E
:1013000006C180918E02823239F4F6018281938186
:101310000A97099708F437C1F601828193818957AA
:10132000910983359105D8F480918E028132B8F00D
:10133000F60184819581CA97899788F496012A5F7E
:101340003F4F80E090E0DC0143E050E0F901608134
:1013500071816A5071096930710508F430C12091BA
:101360002201309123013FA32EA3263031050CF436
:1013700064C186010E5F1F4F85ECC82E8DE9D82E03
:101380008CE1E82E81E8F82E83E090E09DA38CA309
:10139000F80164817581A080B18080E090E00E94B6
:1013A000770C68A779A78AA79BA7B50180E090E092
:1013B0000E94770C4B015C012DEC3CEC4CE45FE3AC
:1013C0000E94290D9B01AC0168A579A58AA59BA562
:1013D0000E94CA0B87FD19C02DEC3CEC4CE45FE386
:1013E00068A579A58AA59BA50E94290D9B01AC0142
:1013F000C501B4010E94CA0BE82F880FFF0BEE272E
:10140000FF0FEE1FFF27319602C0E0E0F0E0A701DA
:10141000960163E971E080E091E00E94960D6F0112
:10142000FF0FEE08FF08C626D726E826F9262CA1CE
:101430003DA12F5F3F4F3DA32CA30E5F1F4F8EA1F9
:101440009FA18217930709F0A3CFC0921A01D092EF
:101450001B01E0921C01F0921D01E0E2F0E0F0932C
:101460001F01E0931E018FEF9FEF1DCC4CEB51E06D
:10147000BE016F5F7F4FCE0182960E9437037C01D1
:101480000330110571F04CEB51E0BE016F5F7F4FEF
:10149000CE0182960E9437036C0103301105D9F406
:1014A0000DC04CEB51E0BE016F5F7F4FCE018296C5
:1014B0000E943703E816F90631F3A9CE4CEB51E050
:1014C000BE016F5F7F4FCE0182960E943703C81620
:1014D000D90609F09CCEE114F10459F4CA94CD2840
:1014E00009F095CE880C991CAA1CBB1C689480F846
:1014F0000BC0EA94EF2809F08ACECD2809F087CEF8
:10150000880C991CAA1CBB1C0F5F1F4FAECE1296F5
:101510000D911C911397015111090D30110528F5FA
:1015200001E00E94B10D21601496AE15BF0509F0CF
:10153000DFCE20931A0130931B0140931C0150937E
:101540001D0100E20E94CC0D209318013093190177
:1015500027E030E0309317012093160180E390E0FC
:1015600090931F0180931E01A2CB12960D911C91A6
:101570001397045011090530110508F0C2CE01E09F
:101580000E94B10DD1CF20918E02C601820F911D14
:10159000820F911DDC0112978D919C910A970997FA
:1015A00008F0BACE10921F0110921E0140921A014B
:1015B00050921B0160921C0170921D0149C0F901FB
:1015C00062817381665171096131710540F5880F3F
:1015D000991FAA1FBB1F81604E5F5F4F2C5F3F4F5B
:1015E0004332510509F0B2CE96012A5B3F4FF90113
:1015F000208131812A5031092930310508F0AFCEE0
:1016000020E130E030931F0120931E0180931A01E6
:1016100090931B01A0931C01B0931D0119C0F90107
:1016200062817381665071096730710508F097CE49
:10163000880F991FAA1FBB1FCFCF82E08093C201E2
:1016400010928E021CCC30921701209216012FCBE3
:1016500088E090E028CBE4E2F1E01382128288EE89
:1016600093E0A0E0B0E084839583A683B78384E011
:1016700091E09183808385EC90E09587848784EC6A
:1016800090E09787868780EC90E0918B808B81EC4F
:1016900090E0938B828B82EC90E0958B848B86EC30
:1016A00090E0978B868B118E128E138E148EE1EC48
:1016B000F1E087E08083128208955058BB27AA2763
:1016C0000E94750B0C94EF0C0E94E10C38F00E9404
:1016D000E80C20F039F49F3F19F426F40C94DE0C4A
:1016E0000EF4E095E7FB0C94D80CE92F0E94000D56
:1016F00058F3BA17620773078407950720F079F447
:10170000A6F50C94220D0EF4E0950B2EBA2FA02D09
:101710000B01B90190010C01CA01A0011124FF279E
:10172000591B99F0593F50F4503E68F11A16F04099
:10173000A22F232F342F4427585FF3CF4695379598
:101740002795A795F0405395C9F77EF41F16BA0B5D
:10175000620B730B840BBAF09150A1F0FF0FBB1F0B
:10176000661F771F881FC2F70EC0BA0F621F731F54
:10177000841F48F4879577956795B795F7959E3FB1
:1017800008F0B0CF9395880F08F09927EE0F979542
:10179000879508950E94B40C08F481E008950E9492
:1017A000E30B0C94EF0C0E94E80C58F00E94E10C43
:1017B00040F029F45F3F29F00C94D80C51110C949F
:1017C000230D0C94DE0C0E94000D68F39923B1F3F5
:1017D000552391F3951B550BBB27AA276217730757
:1017E000840738F09F5F5F4F220F331F441FAA1FEB
:1017F000A9F335D00E2E3AF0E0E832D091505040A7
:10180000E695001CCAF72BD0FE2F29D0660F771F54
:10181000881FBB1F261737074807AB07B0E809F03A
:10182000BB0B802DBF01FF2793585F4F3AF09E3FBF
:10183000510578F00C94D80C0C94230D5F3FE4F321
:10184000983ED4F3869577956795B795F7959F5F02
:10185000C9F7880F911D9695879597F90895E1E04E
:10186000660F771F881FBB1F621773078407BA07AD
:1018700020F0621B730B840BBA0BEE1F88F7E09508
:1018800008950E94480C6894B1110C94230D08959A
:101890000E94080D88F09F5798F0B92F9927B751EB
:1018A000B0F0E1F0660F771F881F991F1AF0BA9504
:1018B000C9F714C0B13091F00E94220DB1E0089533
:1018C0000C94220D672F782F8827B85F39F0B93F25
:1018D000CCF3869577956795B395D9F73EF49095B7
:1018E0008095709561957F4F8F4F9F4F0895E89435
:1018F00009C097FB3EF490958095709561957F4F58
:101900008F4F9F4F9923A9F0F92F96E9BB27939505
:10191000F695879577956795B795F111F8CFFAF415
:10192000BB0F11F460FF1BC06F5F7F4F8F4F9F4F46
:1019300016C0882311F096E911C0772321F09EE8A4
:10194000872F762F05C0662371F096E8862F70E00A
:1019500060E02AF09A95660F771F881FDAF7880FE4
:101960009695879597F90895990F0008550FAA0B3A
:10197000E0E8FEEF16161706E807F907C0F01216A2
:101980001306E407F50798F0621B730B840B950BA5
:1019900039F40A2661F0232B242B252B21F40895FA
:1019A0000A2609F4A140A6958FEF811D811D089597
:1019B00097F99F6780E870E060E008959FEF80EC02
:1019C000089500240A9416161706180609060895A5
:1019D00000240A9412161306140605060895092E0B
:1019E0000394000C11F4882352F0BB0F40F4BF2B7A
:1019F00011F460FF04C06F5F7F4F8F4F9F4F0895BA
:101A000057FD9058440F551F59F05F3F71F04795AF
:101A1000880F97FB991F61F09F3F79F08795089594
:101A2000121613061406551FF2CF4695F1DF08C0B3
:101A3000161617061806991FF1CF869571056105D0
:101A400008940895E894BB2766277727CB0197F978
:101A500008950E943C0D0C94EF0C0E94E10C38F0AC
:101A60000E94E80C20F0952311F00C94D80C0C94F3
:101A7000DE0C11240C94230D0E94000D70F3959F31
:101A8000C1F3950F50E0551F629FF001729FBB2775
:101A9000F00DB11D639FAA27F00DB11DAA1F649F11
:101AA0006627B00DA11D661F829F2227B00DA11DC4
:101AB000621F739FB00DA11D621F839FA00D611D4A
:101AC000221F749F3327A00D611D231F849F600D6B
:101AD000211D822F762F6A2F11249F5750409AF094
:101AE000F1F088234AF0EE0FFF1FBB1F661F771F20
:101AF000881F91505040A9F79E3F510580F00C94EB
:101B0000D80C0C94230D5F3FE4F3983ED4F38695F4
:101B100077956795B795F795E7959F5FC1F7FE2B8A
:101B2000880F911D9695879597F90895DB018F93FE
:101B30009F930E94A60DBF91AF91A29F800D911D12
:101B4000A39F900DB29F900D112408950E94EE0D59
:101B5000A59F900DB49F900DA49F800D911D112401
:101B600008950F93083090F0982F872F762F652FC8
:101B7000542F432F322F22270850F4CF220F331F28
:101B8000441F551F661F771F881F991F0A95B2F7BC
:101B90000F91089597FB10F8169400080F930830E2
:101BA00098F00850232F342F452F562F672F782F6A
:101BB000892F902DF4CF0594979587957795679504
:101BC00057954795379527950A95AAF70F91089548
:101BD000EE0FFF1F0590F491E02D0994A29FB00134
:101BE000B39FC001A39F700D811D1124911DB29F51
:101BF000700D811D1124911D089581E090E0F894ED
:081C00000C94020EF894FFCFD2
:101C080000000000F5006E018C004201BD009B0041
:061C1800AF000D0A000000
:00000001FF
